:061DB900810203810C0011
:10198A00E4780DF2121CE11214E4D2A474FFFFFEF3
:10199A00121C64121C2E7FE87E03121D237801E2BA
:1019AA00FFD394E8748094834003021A46EFC394E9
:1019BA00645003021A46780DE22407F8E27801F22D
:1019CA00780DE204F2E2B40202E4F2780BE2FCE4FB
:1019DA0012120C121872C004C005C006C00778079C
:1019EA00E275F002A4FFAEF008E2FD7C001213DB00
:1019FA00AC06AD07E4121207D003D002D001D00022
:101A0A001210FCC004C005C006C0077808E2FFE255
:101A1A008FF0A4FDACF018E2FFE28FF0A42DFDE5F3
:101A2A00F03CFCE4121207D003D002D001D000121D
:101A3A001007121A8B1212407803EFF27803E2FFB2
:101A4A0075F06484FE08F2EF75F06484E5F075F0D1
:101A5A000A8408F208EEF27BFE7A0079047815E42B
:101A6A00F2087403F20874F8F208E4F274FF08F258
:0D1A7A0008F2E4FDFCFFFE12169502199D16
:101CE100758DFD758BFD758921758AE0758CB1D275
:101CF100ABD2A9D28CD28EC29FD29ED29CD2ACD270
:021D0100AF220F
:101D2300D3EF9400EE940040147D6E7C00ED1D70A3
:0D1D3300011CED4C70F7EF1F70E61E80E301
:011D40002280
:081DB100C2998F993099FD22BF
:101C9700C2AC30981BAF997800E22409F8EFF278CC
:101CA70000E204F2E2B40202E4F2780AE27801F216
:041CB700D2ACC29851
:011CBB002206
:101C2E00E4F58CF58AD2927F0AFE121D233093FDC5
:101C3E00D28C2093FDC28CAF8AE4F58CF58AAC076A
:101C4E0012120C7B967A43798B783C1210FC12128E
:051C5E00407801EFF2E7
:011C6300225E
:101CBC00E4FE758AE0758CB1D28CE58AB4FF13E52D
:101CCC008CB4FF0E0EEED39F5004D29480ECC294D1
:041CDC0080E8D28C3E
:011CE00022E1
:101D8600AD077FC2121CBC7C007E027FB21213ED2F
:031D9600021D2308
:1000030000000000000000000000000000000000ED
:1000130000000000000000000000000000000000DD
:1000230000000000000000000000000000000000CD
:1000330000000000000000000000000000000000BD
:1000430000000000000000000000000000000000AD
:10005300000000000000000000000000000000009D
:10006300000000000000000000000000000000008D
:10007300000000000000000000000000000000007D
:100083000000001808C80808000000000000000075
:1000930000007F6060606060606060E0602000007E
:1000A300000000000000000000000000000000004D
:1000B30000001818181010100000000000000000C5
:1000C30000000000000000000808080C0C0C0000F1
:1000D300000000000000000000000000000000001D
:1000E30000006C3810007CC6701CC67C0000000049
:1000F300000010386C00780C7CCCCC76000000003B
:100103000000000000007CC670C0C67C0000000038
:100113000000000000006C967CD0D66C000000004C
:100123000000000000007CC60606C67C000000003C
:10013300000000386CC6C6FEC6C66C38000000005E
:1001430000000000001038286C44C6C60000000000
:100153000000000000007CC606FEC67C0000000014
:10016300000000000000DC666666F60606663C00DA
:100173000000006C38F80C7EC6C6C67C0000000088
:100183000000000E1B18181818181818D870000053
:100193000000000000FE860C180C0606C67C00005A
:1001A300000076DC0000780C7CCCCC7600000000EC
:1001B300000076DC00007CC60606C67C000000005A
:1001C300000076DC0000DC66666666660000000000
:1001D30000000000000076999F98996F00000000CE
:1001E30000000000000000000000000C06060000F4
:1001F300000000000000000000003C66663C0000B8
:1002030000000000000000000000000000000000EB
:10021300000000183C3C3C181800181800000000AF
:100223000000C6C6C6440000000000000000000035
:100233000000006C6CFE6C6C6CFE6C6C00000000CB
:100243000018187CC6C2C07C0686C67C181800003D
:100253000000000000C3C60C183063C30000000098
:10026300000000386C6C3876DCCCCC7600000000E3
:10027300000030303060000000000000000000008B
:1002830000000018306060606060301800000000FB
:10029300000000180C06060606060C1800000000F5
:1002A30000000000006C38FE386C00000000000005
:1002B300000000001818187E18181800000000002D
:1002C30000000000000000000018181830000000B3
:1002D30000000000000000FE00000000000000001D
:1002E30000000000000000000000181800000000DB
:1002F30000000002060C183060C0800000000000FF
:100303000000007CC6CEDEF6E6C6C67C0000000018
:1003130000000018387818181818187E000000001C
:100323000000007CC6060C183060C6FE000000000A
:100333000000007CC606063C0606C67C00000000E2
:100343000000000C1C3C6CCCFE0C0C1E00000000DA
:10035300000000FEC0C0C0FC0606C67C0000000012
:100363000000003860C0C0FCC6C6C67C00000000A8
:10037300000000FEC6060C183030303000000000CC
:100383000000007CC6C6C67CC6C6C67C0000000052
:100393000000007CC6C6C67E06060C78000000007E
:1003A30000000000181800000018180000000000EA
:1003B30000000000181800000018183000000000AA
:1003C300000000060C18306030180C060000000016
:1003D3000000000000007E00007E0000000000001E
:1003E3000000006030180C060C183060000000009C
:1003F3000000007CC6C60C18180018180000000086
:100403000000007CC6C6DEDEDEDCC07C000000002F
:1004130000000010386CC6C6FEC6C6C60000000049
:10042300000000FC6666667C666666FC00000000F1
:100433000000003C66C2C0C0C0C2663C00000000B1
:10044300000000F86C66666666666CF800000000E3
:10045300000000FE66626878686266FE00000000C5
:10046300000000FE66626878686060F000000000CB
:100473000000003C66C2C0C0DEC6663A0000000051
:10048300000000C6C6C6C6FEC6C6C6C6000000003B
:100493000000003C181818181818183C0000000039
:1004A3000000001E0C0C0C0C0CCCCC7800000000DF
:1004B300000000E6666C6C786C6C66E60000000079
:1004C300000000F060606060606266FE0000000093
:1004D300000000C6EEFED6C6C6C6C6C600000000B3
:1004E300000000C6E6F6FEDECEC6C6C6000000006B
:1004F300000000386CC6C6C6C6C66C3800000000D3
:10050300000000FC6666667C606060F0000000002E
:100513000000007CC6C6C6D6DE7C0C0E00000000C0
:10052300000000FC6666667C6C6666E60000000000
:100533000000007CC6C660380CC6C67C0000000004
:100543000000007E5A1818181818183C0000000004
:10055300000000C6C6C6C6C6C6C6C67C00000000EC
:10056300000000C6C6C6C6C6C66C38100000000030
:10057300000000C6C6C6C6C6D6FEEEC60000000012
:10058300000000C6C6C66C386CC6C6C600000000B4
:10059300000000C6C6C66C383838387C000000003E
:1005A300000000FEC68C183060C2C6FE00000000CA
:1005B3000000003C303030303030303C0000000070
:1005C30000000080C0E070381C0E0602000000002E
:1005D3000000003C0C0C0C0C0C0C0C3C000000004C
:1005E3000010386CC600000000000000000000008E
:1005F30000000000000000000000000000FE0000FA
:10060300000030301800000000000000000000006F
:10061300000000000000780C7CCCCC7600000000C9
:10062300000000E06060786C666666DC0000000035
:100633000000000000007CC6C0C0C67C00000000B3
:100643000000001C0C0C3C6CCCCCCC7600000000F1
:100653000000000000007CC6FEC0C67C0000000055
:100663000000001C3632307C30303078000000004F
:1006730000000000000076CCCCCC7C0CCC780000D1
:10068300000000E060606C76666666E600000000CD
:1006930000000018180038181818183C0000000053
:1006A3000000000606000E0606060666663C00000D
:1006B300000000E06060666C786C66E60000000095
:1006C30000000038181818181818183C000000000B
:1006D30000000000000044FED6D6D6D6000000007D
:1006E300000000000000DC6666666666000000002D
:1006F3000000000000007CC6C6C6C67C00000000E7
:10070300000000000000DC6666667C6060F00000AC
:1007130000000000000076CCCCCC7C0C0C1E00004A
:10072300000000000000DC76666060F0000000005E
:100733000000000000007CC6701CC67C00000000A6
:10074300000000103030FC303030361C0000000058
:10075300000000000000CCCCCCCCCC760000000024
:10076300000000000000C6C6C66C38100000000080
:10077300000000000000C6C6C6D6FE6C00000000E4
:10078300000000000000C66C38386CC60000000092
:10079300000000000000C6C6C6C67E060C78000036
:1007A300000000000000FECC183066FE00000000D0
:1007B3000000000E181818701818180E000000001A
:1007C3000000001818181800181818180000000066
:1007D300000000701818180E181818700000000098
:1007E30000000076DC0000000000000000000000B4
:1007F30000000000000000000000000000000000F6
:1008030000000000000000000000000000000000E5
:1008130000000000000000000000000000000000D5
:1008230000000000000000000000000000000000C5
:0110030000EC
:101D0300E4FDFCC3ED9FEC9E5015E4FBFA0BBB0016
:0F1D1300010AEB64FA4A70F50DBD00010C80E483
:011D2200229E
:101D5A007E08EF30E704D2A38002C2A3C2A5D2A5AF
:061D6A00EF25E0FFDEECB6
:011D70002250
:0A1DA700C2A0C2A2121D5AD2A0224F
:071D71007F2A121DA7E4FF09
:0D1D7800E47833F2C2A0D2A2121D5AD2A00C
:011D8500223B
:041D4100AD07AC0638
:101D4500E4782BF2C2A0D2A2ECFF121D5AAF051205
:041D55001D5AD2A0A1
:011D59002267
:0E1D9900C2A17F647E00121D03D2A1021D03B1
:1014E400121D997F11121DA77F787E00121D037FA4
:1014F400B1121DA77F01121D787F2C121D787F2D3C
:10150400121D787FB2121DA77F01121D787F2C1245
:101514001D787F2D121D787FB3121DA77F01121D28
:10152400787F2C121D787F2D121D787F01121D7873
:101534007F2C121D787F2D121D787FB4121DA77F7A
:1015440007121D787FC0121DA77FA2121D787F028B
:10155400121D787F84121D787FC1121DA77FC512CA
:101564001D787FC2121DA77F0A121D78E4FF121D89
:10157400787FC3121DA77F8A121D787F2A121D78D7
:101584007FC4121DA77F8A121D787FEE121D787FFB
:10159400C5121DA77F0E121D787F36121DA77FA8C6
:1015A400121D787FE0121DA77F0F121D787F1A127B
:1015B4001D787F0F121D787F18121D787F2F121D42
:1015C400787F28121D787F20121D787F22121D78C3
:1015D4007F1F121D787F1B121D787F23121D787FB9
:1015E40037121D78E4FF121D787F07121D787F02E1
:1015F400121D787F10121D787FE1121DA77F0F1234
:101604001D787F1B121D787F0F121D787F17121D06
:10161400787F33121D787F2C121D787F29121D7854
:101624007F2E121D787F30121D787F30121D787F37
:1016340039121D787F3F121D78E4FF121D787F0751
:10164400121D787F03121D787F10121D78121D71F0
:101654007F02121D78E4FF121D787F82121D787FAD
:101664002B121D737F03121D78E4FF121D787F83F4
:10167400121D787FF0121DA77F01121D787FF612CC
:101684001D737F3A121DA77F05121D787F29021D45
:01169400A7AE
:101BBB008F828E83121D71AF82EF2403FF121D786B
:101BCB00E4FF121D78EB2403FF121D787F2B121DEF
:101BDB0073ED2402FF121D78E4FF121D7878310893
:0C1BEB00E22402FF121D787F2C021DA7CF
:071C6400780EEEF208EFF22A
:101C6B007831E4F208747FF2FB7A00E4FDFCFFFEAE
:101C7B00121BBBE4FBE4FA780EE2FE08E2FF121D36
:0B1C8B00410AEAB480F10BEBB480EAE0
:011C9600222B
:101BF7007827EEF208EFF208EAF208EBF28D828C12
:101C0700837827E2FE08E2FF2401FBE43EFAE5823F
:101C170024017832F2E4358318F2121BBB7829E2EB
:071C2700FE08E2FF021D416F
:10169500780EEEF208EFF208ECF208EDF208EBF244
:0616A50008EAF208E9F278
:1016AB00E4781BF208F27815E2FE08E2FF781BE201
:1016BB00FC08E2FDC39FEC9E40030218297812E25E
:1016CB00FB08E2FA08E2F98D828C831213AEF9C3A0
:1016DB0094A1400122AF01E4FCFDFE7B10FAF9F866
:1016EB0012144278231214D8E4FBFA78230808E288
:1016FB00FE08E22BFFEE3AFE74032FF58274003ED8
:10170B00F583E493FF74342BF58274003AF583EF81
:10171B00F00BBB00010AEB64104A70CFE4781FF2A8
:10172B0008F2E4781DF208F2781DE2FE08E2FFC32E
:10173B009408EE64809480400302180074807E004D
:10174B00A807088006CEA2E713CE13D8F8FF781FA0
:10175B00E2FC08E2FD2434F58274003CF583E0FBE7
:10176B003395E05EFEEF5B4E6039781DE2FE08E2DA
:10177B00FF780FE22FFB18E23EFA781BE2FE08E23D
:10178B007803C333CE33CED8F92BFFEA3EFE782154
:10179B00F208EFF27810E2FA08E22DFDEC3AFC7851
:1017AB0017803C781DE2FE08E2FF780FE22FFD1850
:1017BB00E23EFC781BE2FE08E27803C333CE33CE65
:1017CB00D8F92DFFEC3EFE7821F208EFF27810E20B
:1017DB00FC08E2FD7820E22DFD18E23CFC7819E2D2
:1017EB00FA08E2FB121BF7781EE22401F218E2342E
:1017FB0000F20217337820E22401F218E23400F2EF
:10180B00C308E2941018E264809480500302172DF1
:0E181B00781CE22401F218E23400F20216B149
:01182900229C
:101004000212ACE86480F8E933E83360110460F05C
:10101400ED33EC337009E8FCE9FDEAFEEBFF220452
:1010240060DED3EB9FEA9EE99DE8C2E78CF0C2F74D
:1010340095F0400CE8CCF8E9CDF9EACEFAEBCFFB19
:1010440012127785D0F05804700320D5B3E80470E9
:10105400075002B2D50212B692D5EC0460F7E4CC84
:10106400C0E0C398F8603B94186008400DD0E0FBE2
:1010740002128EE4FBFAC9FC8028E830E406E4C9D5
:10108400FBE4CAFCE830E305E4C9CACBFCE8540736
:101094006010F8C3E913F9EA13FAEB13FBEC13FC41
:1010A400D8F130F52FC3E49CFCEF9BFFEE9AFEEDE4
:1010B40099FDD0E0FBEF4E4D4C701222DB0302127F
:1010C400B3EC2CFCEF33FFEE33FEED33FDED30E7F4
:1010D400EB02128EEF2BFFEE3AFEED39FDD0E0FB72
:1010E40050130BBB00030212B6ED13FDEE13FEEF1B
:0810F40013FFEC13FC02128E45
:1010FC00EC4D6011E8497017ED33EC3304600DE4EE
:10110C00FCFFFEFD22E933E8330470F80212AC1246
:10111C00127758046009E4CC248150062850090247
:10112C0012B62840030212B3C0E0EB4A7044B980F7
:10113C0006D0E0FB0212A2EF4E701CBD8008EBFF44
:10114C00EAFEE9FD80EBE98DF0A4FEE5F00211E585
:10115C00E9CDF9EAFEEBFFEF89F0A4FCE5F0CE89CE
:10116C00F0A42EFFE435F0CD89F0A42DFEE435F08B
:10117C008067EF4E7005BD80D780C3EF8BF0A4ACB9
:10118C00F0EE8BF0A42CFCE435F0F8EF8AF0A42CF4
:10119C00E5F038FCE433CB8DF0A42CFCE5F03BF807
:1011AC00EE8AF0A42CFCE5F038F8E433CF89F0A4F7
:1011BC002CFCE5F038CF3400CE89F0A42FFFE5F0FD
:1011CC003EFEE433C98DF0A42EFEE5F039CD8AF055
:1011DC00A42FFFE5F03EFEE43DFD33D0E0FB5007CD
:1011EC000BBB000F0212B6EC2CFCEF33FFEE33FE00
:0611FC00ED33FD02128E2E
:1012020075F020800E75F010800575F0087D007E67
:10121200007F003392D530D503121491EC33401085
:10122200EF33FFEE33FEED33FDEC33FCD5F0ED2270
:0E123200E5F0247EA2D513CC92E7CDCEFF22AC
:10124000EDD2E7CD33EC3392D524814006E4FFFEA6
:10125000FDFC22FCE4CFCECDCC24E0501174FF8005
:10126000EDC3CC13CCCD13CDCE13CECF13CF0470A2
:07127000F030D5DE021491FD
:101A87000212AC22EDA2E7D2E7F9EC3340F260F3A1
:101A9700B4FF08ED547F70E80212B6F82481C2E063
:101AA700C0E0F40428FAC313FCED92E7FD780E12A8
:101AB70014D8EEA2E7E9BA7F02C31334009400FA00
:101AC70075F091A4E5F013F494FE8AF0A433E5F0E1
:101AD70033248CD313FDE492E7FE7F007C3F7583AC
:101AE70002ECC0E0F8EDC0E0F9EEC0E0FAEFC0E0CC
:101AF700FB88F0780E12149FA8F01212C4D0E0FBF6
:101B0700D0E0FAD0E0F9D0E0F812100BED6480FDD8
:101B170030E7011CD583CAED33CC33F8D0E0A2E718
:081B27001328C313CC13FD22A7
:10182A003A70FA83BCAAE9E43E81E0F8BF9DE9E692
:10183A003F80000039283C1ABB9969663DA335E30D
:10184A00BF255DE73FC90FDB418DDBCCC44936EECE
:10185A0045C9913FC5B0F83D3F800000C317F53434
:10186A00452FFA73C60AFDDD12190B04A2E1920094
:10187A001420E01590182A7404121361802012199A
:10188A000B30E102B20020E0EB780E1214D8901867
:10189A003E7404121361780E1214BB1210FCED4C44
:1018AA006007300004EC6480FC2212190BC0E07857
:1018BA000E1214D89018627403121361780E12145F
:1018CA00BB1210FC780EE2CCF208E2CDF208E2CEAE
:1018DA00F208E2CFF29018527403121361D08278A0
:1018EA000E1214BBE58230E0071212C4B20080AEB9
:1018FA00EFCBFFEECAFEEDC9FDECC8FC1212C480A4
:10190A009DED33EC547FCC33920024605007D0E035
:10191A00D0E00212AC7B837AF97922783E1210FC6D
:10192A00EDF933ECF83324815011EFFBEEFA121281
:10193A0040121202ECB2E7FC12100BED33EC3360EA
:10194A002F2403F8C313FCED92E7FDE82481E45049
:10195A001FECF8EDF9EEFAEFFB121240EF04C2E0C9
:10196A00FCF58212120CECB2E7FC12100BE58203B2
:10197A00FAED33EC3360071413FCED92E7FDEA222B
:10127700E9D2E7C933E833F892D5EDD2E7CD33ECBD
:0712870033FC5002B2D52236
:10128E00EC30E7100FBF000C0EBE00080DBD0004C1
:10129E000BEB6014A2D5EB13FCED92E7FD2274FF6D
:1012AE00FCFDFEFF22E480F8A2D574FF13FC7D80C6
:0312BE00E480EFDA
:1012C1000212B6EC5D046005E8590470030212AC29
:1012D100121277580460F6EC4860F2EC7004FDFEDF
:1012E100FF22C860DB2481C85009C3986002500600
:1012F1000212B39850CAF582E9294B4A7005AB82B4
:101301000212A275F0007C1A7880C3EF9BEE9AED71
:1013110099400DC3EF9BFFEE9AFEED99FDE842F077
:10132100DC23ACF0D0E0FFD0E0FED0E0FDAB8220CA
:10133100E7101BEB60BAEC2CFCEF33FFEE33FEED54
:1013410033FD02128EE803F830E705C0F075F000B6
:10135100EF2FFFEE33FEED33FD40B830E7C280AA38
:10136100C0E0EFFBEEFAEDF9ECF81210FCD0E0F57D
:10137100F0EFFBEEFAEDF9ECF81214ABA3A3A3A383
:10138100E8C0E0E9C0E0EAC0E0EBC0E0C0F0121064
:10139100FC1214C8A3A3A3A312100BD0F0D0E0FB3E
:0D13A100D0E0FAD0E0F9D0E0F8D5F0D42289
:03000000021B2FB1
:0C1B2F00787FE4F6D8FD758120021B765B
:1013AE00BB010CE58229F582E5833AF583E02250F4
:1013BE0006E92582F8E622BBFE06E92582F8E2223E
:0D13CE00E58229F582E5833AF583E4932258
:1013DB00EF8DF0A4A8F0CF8CF0A428CE8DF0A42E26
:0213EB00FE22E0
:1013ED00BC000BBE0029EF8DF084FFADF022E4CCE4
:1013FD00F875F008EF2FFFEE33FEEC33FCEE9DECAD
:10140D00984005FCEE9DFE0FD5F0E9E4CEFD22EDF2
:10141D00F8F5F0EE8420D21CFEADF075F008EF2F3C
:10142D00FFED33FD4007985006D5F0F222C398FD2D
:05143D000FD5F0EA22CA
:10144200E88FF0A4CC8BF0A42CFCE98EF0A42CFC49
:101452008AF0EDA42CFCEA8EF0A4CDA8F08BF0A4C7
:101462002DCC3825F0FDE98FF0A42CCD35F0FCEB26
:101472008EF0A4FEA9F0EB8FF0A4CFC5F02ECD39EB
:0F148200FEE43CFCEAA42DCE35F0FDE43CFC2258
:0E149100C3E49FFFE49EFEE49DFDE49CFC226C
:0C149F00E2FC08E2FD08E2FE08E2FF2289
:1014AB00E493FC740193FD740293FE740393FF2287
:0D14BB00E2FB08E2F908E2FA08E2CBF822B1
:1014C800E493F8740193F9740293FA740393FB227A
:0C14D800ECF208EDF208EEF208EFF22250
:101B3B0002198AE493A3F8E493A34003F68001F21D
:101B4B0008DFF48029E493A3F85407240CC8C333AB
:101B5B00C4540F4420C8834004F456800146F6DF7A
:101B6B00E4800B0102040810204080901DB9E47E34
:101B7B00019360BCA3FF543F30E509541FFEE4936F
:101B8B00A360010ECF54C025E060A840B8E493A336
:101B9B00FAE493A3F8E493A3C8C582C8CAC583CA61
:101BAB00F0A3C8C582C8CAC583CADFE9DEE780BE19
:011DBF000023
:00000001FF
